{"abi":[{"type":"constructor","inputs":[{"name":"_token","type":"address","internalType":"contract IERC20"},{"name":"_allowlist","type":"address[]","internalType":"address[]"},{"name":"_rnmProxy","type":"address","internalType":"address"},{"name":"_router","type":"address","internalType":"address"}],"stateMutability":"nonpayable"},{"type":"function","name":"acceptOwnership","inputs":[],"outputs":[],"stateMutability":"nonpayable"},{"type":"function","name":"applyAllowListUpdates","inputs":[{"name":"removes","type":"address[]","internalType":"address[]"},{"name":"adds","type":"address[]","internalType":"address[]"}],"outputs":[],"stateMutability":"nonpayable"},{"type":"function","name":"applyChainUpdates","inputs":[{"name":"chains","type":"tuple[]","internalType":"struct TokenPool.ChainUpdate[]","components":[{"name":"remoteChainSelector","type":"uint64","internalType":"uint64"},{"name":"allowed","type":"bool","internalType":"bool"},{"name":"remotePoolAddress","type":"bytes","internalType":"bytes"},{"name":"remoteTokenAddress","type":"bytes","internalType":"bytes"},{"name":"outboundRateLimiterConfig","type":"tuple","internalType":"struct RateLimiter.Config","components":[{"name":"isEnabled","type":"bool","internalType":"bool"},{"name":"capacity","type":"uint128","internalType":"uint128"},{"name":"rate","type":"uint128","internalType":"uint128"}]},{"name":"inboundRateLimiterConfig","type":"tuple","internalType":"struct RateLimiter.Config","components":[{"name":"isEnabled","type":"bool","internalType":"bool"},{"name":"capacity","type":"uint128","internalType":"uint128"},{"name":"rate","type":"uint128","internalType":"uint128"}]}]}],"outputs":[],"stateMutability":"nonpayable"},{"type":"function","name":"getAllowList","inputs":[],"outputs":[{"name":"","type":"address[]","internalType":"address[]"}],"stateMutability":"view"},{"type":"function","name":"getAllowListEnabled","inputs":[],"outputs":[{"name":"","type":"bool","internalType":"bool"}],"stateMutability":"view"},{"type":"function","name":"getCurrentInboundRateLimiterState","inputs":[{"name":"remoteChainSelector","type":"uint64","internalType":"uint64"}],"outputs":[{"name":"","type":"tuple","internalType":"struct RateLimiter.TokenBucket","components":[{"name":"tokens","type":"uint128","internalType":"uint128"},{"name":"lastUpdated","type":"uint32","internalType":"uint32"},{"name":"isEnabled","type":"bool","internalType":"bool"},{"name":"capacity","type":"uint128","internalType":"uint128"},{"name":"rate","type":"uint128","internalType":"uint128"}]}],"stateMutability":"view"},{"type":"function","name":"getCurrentOutboundRateLimiterState","inputs":[{"name":"remoteChainSelector","type":"uint64","internalType":"uint64"}],"outputs":[{"name":"","type":"tuple","internalType":"struct RateLimiter.TokenBucket","components":[{"name":"tokens","type":"uint128","internalType":"uint128"},{"name":"lastUpdated","type":"uint32","internalType":"uint32"},{"name":"isEnabled","type":"bool","internalType":"bool"},{"name":"capacity","type":"uint128","internalType":"uint128"},{"name":"rate","type":"uint128","internalType":"uint128"}]}],"stateMutability":"view"},{"type":"function","name":"getRateLimitAdmin","inputs":[],"outputs":[{"name":"","type":"address","internalType":"address"}],"stateMutability":"view"},{"type":"function","name":"getRemotePool","inputs":[{"name":"remoteChainSelector","type":"uint64","internalType":"uint64"}],"outputs":[{"name":"","type":"bytes","internalType":"bytes"}],"stateMutability":"view"},{"type":"function","name":"getRemoteToken","inputs":[{"name":"remoteChainSelector","type":"uint64","internalType":"uint64"}],"outputs":[{"name":"","type":"bytes","internalType":"bytes"}],"stateMutability":"view"},{"type":"function","name":"getRmnProxy","inputs":[],"outputs":[{"name":"rmnProxy","type":"address","internalType":"address"}],"stateMutability":"view"},{"type":"function","name":"getRouter","inputs":[],"outputs":[{"name":"router","type":"address","internalType":"address"}],"stateMutability":"view"},{"type":"function","name":"getSupportedChains","inputs":[],"outputs":[{"name":"","type":"uint64[]","internalType":"uint64[]"}],"stateMutability":"view"},{"type":"function","name":"getToken","inputs":[],"outputs":[{"name":"token","type":"address","internalType":"contract IERC20"}],"stateMutability":"view"},{"type":"function","name":"isSupportedChain","inputs":[{"name":"remoteChainSelector","type":"uint64","internalType":"uint64"}],"outputs":[{"name":"","type":"bool","internalType":"bool"}],"stateMutability":"view"},{"type":"function","name":"isSupportedToken","inputs":[{"name":"token","type":"address","internalType":"address"}],"outputs":[{"name":"","type":"bool","internalType":"bool"}],"stateMutability":"view"},{"type":"function","name":"lockOrBurn","inputs":[{"name":"lockOrBurnIn","type":"tuple","internalType":"struct Pool.LockOrBurnInV1","components":[{"name":"receiver","type":"bytes","internalType":"bytes"},{"name":"remoteChainSelector","type":"uint64","internalType":"uint64"},{"name":"originalSender","type":"address","internalType":"address"},{"name":"amount","type":"uint256","internalType":"uint256"},{"name":"localToken","type":"address","internalType":"address"}]}],"outputs":[{"name":"lockOrBurnOut","type":"tuple","internalType":"struct Pool.LockOrBurnOutV1","components":[{"name":"destTokenAddress","type":"bytes","internalType":"bytes"},{"name":"destPoolData","type":"bytes","internalType":"bytes"}]}],"stateMutability":"nonpayable"},{"type":"function","name":"owner","inputs":[],"outputs":[{"name":"","type":"address","internalType":"address"}],"stateMutability":"view"},{"type":"function","name":"releaseOrMint","inputs":[{"name":"releaseOrMintIn","type":"tuple","internalType":"struct Pool.ReleaseOrMintInV1","components":[{"name":"originalSender","type":"bytes","internalType":"bytes"},{"name":"remoteChainSelector","type":"uint64","internalType":"uint64"},{"name":"receiver","type":"address","internalType":"address"},{"name":"amount","type":"uint256","internalType":"uint256"},{"name":"localToken","type":"address","internalType":"address"},{"name":"sourcePoolAddress","type":"bytes","internalType":"bytes"},{"name":"sourcePoolData","type":"bytes","internalType":"bytes"},{"name":"offchainTokenData","type":"bytes","internalType":"bytes"}]}],"outputs":[{"name":"releaseOrMintOut","type":"tuple","internalType":"struct Pool.ReleaseOrMintOutV1","components":[{"name":"destinationAmount","type":"uint256","internalType":"uint256"}]}],"stateMutability":"nonpayable"},{"type":"function","name":"setChainRateLimiterConfig","inputs":[{"name":"remoteChainSelector","type":"uint64","internalType":"uint64"},{"name":"outboundConfig","type":"tuple","internalType":"struct RateLimiter.Config","components":[{"name":"isEnabled","type":"bool","internalType":"bool"},{"name":"capacity","type":"uint128","internalType":"uint128"},{"name":"rate","type":"uint128","internalType":"uint128"}]},{"name":"inboundConfig","type":"tuple","internalType":"struct RateLimiter.Config","components":[{"name":"isEnabled","type":"bool","internalType":"bool"},{"name":"capacity","type":"uint128","internalType":"uint128"},{"name":"rate","type":"uint128","internalType":"uint128"}]}],"outputs":[],"stateMutability":"nonpayable"},{"type":"function","name":"setRateLimitAdmin","inputs":[{"name":"rateLimitAdmin","type":"address","internalType":"address"}],"outputs":[],"stateMutability":"nonpayable"},{"type":"function","name":"setRemotePool","inputs":[{"name":"remoteChainSelector","type":"uint64","internalType":"uint64"},{"name":"remotePoolAddress","type":"bytes","internalType":"bytes"}],"outputs":[],"stateMutability":"nonpayable"},{"type":"function","name":"setRouter","inputs":[{"name":"newRouter","type":"address","internalType":"address"}],"outputs":[],"stateMutability":"nonpayable"},{"type":"function","name":"supportsInterface","inputs":[{"name":"interfaceId","type":"bytes4","internalType":"bytes4"}],"outputs":[{"name":"","type":"bool","internalType":"bool"}],"stateMutability":"pure"},{"type":"function","name":"transferOwnership","inputs":[{"name":"to","type":"address","internalType":"address"}],"outputs":[],"stateMutability":"nonpayable"},{"type":"event","name":"AllowListAdd","inputs":[{"name":"sender","type":"address","indexed":false,"internalType":"address"}],"anonymous":false},{"type":"event","name":"AllowListRemove","inputs":[{"name":"sender","type":"address","indexed":false,"internalType":"address"}],"anonymous":false},{"type":"event","name":"Burned","inputs":[{"name":"sender","type":"address","indexed":true,"internalType":"address"},{"name":"amount","type":"uint256","indexed":false,"internalType":"uint256"}],"anonymous":false},{"type":"event","name":"ChainAdded","inputs":[{"name":"remoteChainSelector","type":"uint64","indexed":false,"internalType":"uint64"},{"name":"remoteToken","type":"bytes","indexed":false,"internalType":"bytes"},{"name":"outboundRateLimiterConfig","type":"tuple","indexed":false,"internalType":"struct RateLimiter.Config","components":[{"name":"isEnabled","type":"bool","internalType":"bool"},{"name":"capacity","type":"uint128","internalType":"uint128"},{"name":"rate","type":"uint128","internalType":"uint128"}]},{"name":"inboundRateLimiterConfig","type":"tuple","indexed":false,"internalType":"struct RateLimiter.Config","components":[{"name":"isEnabled","type":"bool","internalType":"bool"},{"name":"capacity","type":"uint128","internalType":"uint128"},{"name":"rate","type":"uint128","internalType":"uint128"}]}],"anonymous":false},{"type":"event","name":"ChainConfigured","inputs":[{"name":"remoteChainSelector","type":"uint64","indexed":false,"internalType":"uint64"},{"name":"outboundRateLimiterConfig","type":"tuple","indexed":false,"internalType":"struct RateLimiter.Config","components":[{"name":"isEnabled","type":"bool","internalType":"bool"},{"name":"capacity","type":"uint128","internalType":"uint128"},{"name":"rate","type":"uint128","internalType":"uint128"}]},{"name":"inboundRateLimiterConfig","type":"tuple","indexed":false,"internalType":"struct RateLimiter.Config","components":[{"name":"isEnabled","type":"bool","internalType":"bool"},{"name":"capacity","type":"uint128","internalType":"uint128"},{"name":"rate","type":"uint128","internalType":"uint128"}]}],"anonymous":false},{"type":"event","name":"ChainRemoved","inputs":[{"name":"remoteChainSelector","type":"uint64","indexed":false,"internalType":"uint64"}],"anonymous":false},{"type":"event","name":"ConfigChanged","inputs":[{"name":"config","type":"tuple","indexed":false,"internalType":"struct RateLimiter.Config","components":[{"name":"isEnabled","type":"bool","internalType":"bool"},{"name":"capacity","type":"uint128","internalType":"uint128"},{"name":"rate","type":"uint128","internalType":"uint128"}]}],"anonymous":false},{"type":"event","name":"Locked","inputs":[{"name":"sender","type":"address","indexed":true,"internalType":"address"},{"name":"amount","type":"uint256","indexed":false,"internalType":"uint256"}],"anonymous":false},{"type":"event","name":"Minted","inputs":[{"name":"sender","type":"address","indexed":true,"internalType":"address"},{"name":"recipient","type":"address","indexed":true,"internalType":"address"},{"name":"amount","type":"uint256","indexed":false,"internalType":"uint256"}],"anonymous":false},{"type":"event","name":"OwnershipTransferRequested","inputs":[{"name":"from","type":"address","indexed":true,"internalType":"address"},{"name":"to","type":"address","indexed":true,"internalType":"address"}],"anonymous":false},{"type":"event","name":"OwnershipTransferred","inputs":[{"name":"from","type":"address","indexed":true,"internalType":"address"},{"name":"to","type":"address","indexed":true,"internalType":"address"}],"anonymous":false},{"type":"event","name":"Released","inputs":[{"name":"sender","type":"address","indexed":true,"internalType":"address"},{"name":"recipient","type":"address","indexed":true,"internalType":"address"},{"name":"amount","type":"uint256","indexed":false,"internalType":"uint256"}],"anonymous":false},{"type":"event","name":"RemotePoolSet","inputs":[{"name":"remoteChainSelector","type":"uint64","indexed":true,"internalType":"uint64"},{"name":"previousPoolAddress","type":"bytes","indexed":false,"internalType":"bytes"},{"name":"remotePoolAddress","type":"bytes","indexed":false,"internalType":"bytes"}],"anonymous":false},{"type":"event","name":"RouterUpdated","inputs":[{"name":"oldRouter","type":"address","indexed":false,"internalType":"address"},{"name":"newRouter","type":"address","indexed":false,"internalType":"address"}],"anonymous":false},{"type":"event","name":"TokensConsumed","inputs":[{"name":"tokens","type":"uint256","indexed":false,"internalType":"uint256"}],"anonymous":false},{"type":"error","name":"AggregateValueMaxCapacityExceeded","inputs":[{"name":"capacity","type":"uint256","internalType":"uint256"},{"name":"requested","type":"uint256","internalType":"uint256"}]},{"type":"error","name":"AggregateValueRateLimitReached","inputs":[{"name":"minWaitInSeconds","type":"uint256","internalType":"uint256"},{"name":"available","type":"uint256","internalType":"uint256"}]},{"type":"error","name":"AllowListNotEnabled","inputs":[]},{"type":"error","name":"BucketOverfilled","inputs":[]},{"type":"error","name":"CallerIsNotARampOnRouter","inputs":[{"name":"caller","type":"address","internalType":"address"}]},{"type":"error","name":"ChainAlreadyExists","inputs":[{"name":"chainSelector","type":"uint64","internalType":"uint64"}]},{"type":"error","name":"ChainNotAllowed","inputs":[{"name":"remoteChainSelector","type":"uint64","internalType":"uint64"}]},{"type":"error","name":"CursedByRMN","inputs":[]},{"type":"error","name":"DisabledNonZeroRateLimit","inputs":[{"name":"config","type":"tuple","internalType":"struct RateLimiter.Config","components":[{"name":"isEnabled","type":"bool","internalType":"bool"},{"name":"capacity","type":"uint128","internalType":"uint128"},{"name":"rate","type":"uint128","internalType":"uint128"}]}]},{"type":"error","name":"InvalidRateLimitRate","inputs":[{"name":"rateLimiterConfig","type":"tuple","internalType":"struct RateLimiter.Config","components":[{"name":"isEnabled","type":"bool","internalType":"bool"},{"name":"capacity","type":"uint128","internalType":"uint128"},{"name":"rate","type":"uint128","internalType":"uint128"}]}]},{"type":"error","name":"InvalidSourcePoolAddress","inputs":[{"name":"sourcePoolAddress","type":"bytes","internalType":"bytes"}]},{"type":"error","name":"InvalidToken","inputs":[{"name":"token","type":"address","internalType":"address"}]},{"type":"error","name":"NonExistentChain","inputs":[{"name":"remoteChainSelector","type":"uint64","internalType":"uint64"}]},{"type":"error","name":"RateLimitMustBeDisabled","inputs":[]},{"type":"error","name":"SenderNotAllowed","inputs":[{"name":"sender","type":"address","internalType":"address"}]},{"type":"error","name":"TokenMaxCapacityExceeded","inputs":[{"name":"capacity","type":"uint256","internalType":"uint256"},{"name":"requested","type":"uint256","internalType":"uint256"},{"name":"tokenAddress","type":"address","internalType":"address"}]},{"type":"error","name":"TokenRateLimitReached","inputs":[{"name":"minWaitInSeconds","type":"uint256","internalType":"uint256"},{"name":"available","type":"uint256","internalType":"uint256"},{"name":"tokenAddress","type":"address","internalType":"address"}]},{"type":"error","name":"Unauthorized","inputs":[{"name":"caller","type":"address","internalType":"address"}]},{"type":"error","name":"ZeroAddressNotAllowed","inputs":[]}],"bytecode":{"object":"0x604060e08152346200035057620031c5803803806200001e8162000354565b9283398101608082820312620003505781516001600160a01b0380821680830362000350576020858101516001600160401b039691949190878111620003505781019580601f880112156200035057865196888811620002b6578760051b9087806200008c81850162000354565b809b81520192820101928311620003505787809101915b838310620003355750505050620000ca6060620000c28a84016200037a565b92016200037a565b913315620002f1575f80546001600160a01b0319908116331790915593158015620002e6575b8015620002db575b620002ca579084929160805260a05216906004541617600455825115158060c0526200018f575b8451612ca0908162000525823960805181818161104e01528181611a5c01528181611bad01528181611c3e01528181611ca601528181611df40152611e3d015260a05181818161023c015281816110a70152611ab5015260c051818181610201015281816110e101526117fe0152f35b845194929382860190811186821017620002b65783525f855260c05115620002a5575f5b85518110156200021a578082620001cd600193896200038f565b511684620001db82620003d1565b620001ea575b505001620001b3565b7f800671136ab6cfee9fbe5ed1fb7ca417811aca3cf864800d127b927adedf7566918751908152a15f84620001e1565b509293505f5b8451811015620002965780846200023a600193886200038f565b511680156200028f57836200024f82620004c7565b6200025f575b50505b0162000220565b7f2640d4d76caf8bf478aabfa982fa4e1c4eb71a37f93cd15e80dbc657911546d8918651908152a15f8362000255565b5062000258565b50509150505f8080806200011f565b82516335f4a7b360e01b8152600490fd5b634e487b7160e01b5f52604160045260245ffd5b88516342bcdf7f60e11b8152600490fd5b5084821615620000f8565b5084831615620000f0565b885162461bcd60e51b815260048101879052601860248201527f43616e6e6f7420736574206f776e657220746f207a65726f00000000000000006044820152606490fd5b819062000342846200037a565b8152019101908790620000a3565b5f80fd5b6040519190601f01601f191682016001600160401b03811183821017620002b657604052565b51906001600160a01b03821682036200035057565b8051821015620003a45760209160051b010190565b634e487b7160e01b5f52603260045260245ffd5b600254811015620003a45760025f5260205f2001905f90565b5f818152600360205260409020548015620004c1575f1990808201818111620004ad5760025490838201918211620004ad578181036200045d575b505050600254801562000449578101906200042782620003b8565b909182549160031b1b191690556002555f5260036020525f6040812055600190565b634e487b7160e01b5f52603160045260245ffd5b62000496620004706200048093620003b8565b90549060031b1c928392620003b8565b819391549060031b91821b915f19901b19161790565b90555f52600360205260405f20555f80806200040c565b634e487b7160e01b5f52601160045260245ffd5b50505f90565b805f52600360205260405f2054155f146200051f5760025468010000000000000000811015620002b6576200050862000480826001859401600255620003b8565b9055600254905f52600360205260405f2055600190565b505f9056fe6080806040526004361015610012575f80fd5b5f905f3560e01c90816301ffc9a714611e90575080630a2fd49314611e6c57806321df0da714611e28578063240028e814611dd4578063390775371461191457806354c8a4f31461178f5780636d3d1a581461176757806378a010b2146114d557806379ba50971461142b5780637d54534e146113e85780638926f54f146113a65780638da5cb5b1461137f5780639a4575b914610f84578063a7cd63b714610ec7578063af58d59f14610e34578063b0f479a114610e0b578063b794658014610dd2578063c0d7865514610d50578063c4bffe2b14610c2a578063c75eea9c14610b45578063cf7401f314610983578063db6327dc1461026b578063dc0bd97114610226578063e0351e13146101e95763f2fde38b14610131575f80fd5b346101e65760203660031901126101e65761014a611f63565b610152612477565b6001600160a01b03908116903382146101a157600180546001600160a01b031916831790558254167fed8889f560326eb138920d842192f0eb3dd22b4f139c87a2c57538e05bae12788380a380f35b60405162461bcd60e51b815260206004820152601760248201527f43616e6e6f74207472616e7366657220746f2073656c660000000000000000006044820152606490fd5b80fd5b50346101e657806003193601126101e65760206040517f000000000000000000000000000000000000000000000000000000000000000015158152f35b50346101e657806003193601126101e6576040517f00000000000000000000000000000000000000000000000000000000000000006001600160a01b03168152602090f35b50346101e65760203660031901126101e6576004356001600160401b03811161097f5761029c903690600401611f8d565b906102a5612477565b825b8281106102b2578380f35b8060051b82013561013e198336030181121561097b5782016101408136031261097b576040519060c082018281106001600160401b0382111761086d576040526102fb81611f11565b82526103096020820161205d565b6020830190815260408201356001600160401b0381116109775761033090369084016121b4565b91604084019283526060810135906001600160401b0382116109735761035c61037d92369083016121b4565b606086015261036e366080830161207e565b608086015260e036910161207e565b60a08401526103936080840151825115906125e7565b6103a460a0840151825115906125e7565b51156108c2576103bd6001600160401b038351166129f7565b156108a057805151158015610893575b6108815760808201516001600160801b03604082015116916001600160801b036020830151169263ffffffff421692511515936040519461040d86612006565b81865284602087015260408601526060850152608084015260a08401516001600160801b03604082015116906001600160801b03602082015116905115156040519461045886612006565b828652602086015260408501526060840152608083015251606084015191604051938460808101106001600160401b0360808701111761086d576080850160405284526020840152604083015260608201526001600160401b0382511686526007602052604086209061055981516001600160801b038151166001600160801b031985541617845561051063ffffffff602083015116859081549063ffffffff60801b9060801b169063ffffffff60801b1916179055565b6040810151845460ff60a01b191690151560a01b60ff60a01b16178455606081015160809182015190911b6001600160801b0319166001600160801b0391909116176001840155565b60208181015180516002850180549383015163ffffffff60801b60809190911b166001600160801b039092166001600160a01b0319909416939093171782556105eb916105bf906040830151815460ff60a01b191690151560a01b60ff60a01b16179055565b606081015160809182015190911b6001600160801b0319166001600160801b0391909116176003840155565b60408101518051906001600160401b0382116108595761061b8261061260048701546120c5565b600487016122a0565b602090601f83116001146107ea57918061064e92606095948c92610739575b50508160011b915f199060031b1c19161790565b60048401555b01518051906001600160401b0382116107d6576106818261067860058601546120c5565b600586016122a0565b602090601f8311600114610744576106d88360019796947f8d340f17e19058004c20453540862a9c62778504476f6756755cb33bcd6c38c296946005948d926107395750508160011b915f199060031b1c19161790565b9101555b6001600160401b0381511660608201519161072f60a0608083015192015161072561071a604051968796610100908852806020890152870190611f25565b936040860190612437565b60a0840190612437565b0390a15b016102a7565b015190505f8061063a565b906005840189526020892091895b601f19851681106107be5750837f8d340f17e19058004c20453540862a9c62778504476f6756755cb33bcd6c38c295936005936001999896938a94601f198116106107a6575b505050811b019101556106dc565b01515f1960f88460031b161c191690555f8080610798565b91926020600181928685015181550194019201610752565b634e487b7160e01b88526041600452602488fd5b90600485018a5260208a20918a5b601f1985168110610841575091839160019360609695601f19811610610829575b505050811b016004840155610654565b01515f1960f88460031b161c191690555f8080610819565b919260206001819286850151815501940192016107f8565b634e487b7160e01b89526041600452602489fd5b634e487b7160e01b5f52604160045260245ffd5b6040516342bcdf7f60e11b8152600490fd5b50606082015151156103cd565b60246001600160401b0383511660405190631d5ad3c560e01b82526004820152fd5b506108d66001600160401b038251166128ff565b1561095157907f5204aec90a3c794d8e90fded8b46ae9c7c552803e7e832e0c1d358396d85991660206001600160401b0384816001965116895260078352610943600560408b208b81558b898201558b60028201558b600382015561093d600482016123ef565b016123ef565b5116604051908152a1610733565b6001600160401b03602491511660405190631e670e4b60e01b82526004820152fd5b8880fd5b8780fd5b8480fd5b5080fd5b50346101e65760e03660031901126101e65761099d611efb565b6060366023190112610b4157604051906109b682612021565b6024358015158103610b415782526001600160801b03906044358281168103610b415760208401526064358281168103610b415760408401526060366083190112610b415760405191610a0883612021565b6084358015158103610b4157835260a4358181168103610b4157602084015260c4359081168103610b41576040830152600854336001600160a01b0391821614159081610b33575b50610b1b576001600160401b031691610a74835f52600660205260405f2054151590565b15610b025791610afe60e092610af485610aae7f0350d63aa5f270e01729d00d627eeb8f3429772b1818c016c66a588a864f912b9761253f565b8488526007602052610ac38160408a20612665565b610acc8361253f565b8488526007602052610ae483600260408b2001612665565b6040519485526020850190612437565b6080830190612437565ba180f35b604051631e670e4b60e01b815260048101849052602490fd5b60405163472511eb60e11b8152336004820152602490fd5b90508454163314155f610a50565b5f80fd5b50346101e65760203660031901126101e657610bd56040610c26926001600160401b03610b70611efb565b610b786122e5565b5016815260076020522060405190610b8f82612006565b600181549160ff6001600160801b0393848116865263ffffffff8160801c16602087015260a01c16151560408501520154908116606083015260801c60808201526124d5565b60405191829182919091608060a0820193816001600160801b039182815116855263ffffffff6020820151166020860152604081015115156040860152826060820151166060860152015116910152565b0390f35b50346101e657806003193601126101e657604051809160055480835283602080940160055f527f036b6384b5eca791c62761152d0c79bb0604c104a5fb6f4eb0703f3154bb3db0925f5b86828210610d3a57505050610c8b9250038461203c565b825190610cb0610c9a8361221d565b92610ca8604051948561203c565b80845261221d565b82840190601f1901368237815b8551811015610cee57806001600160401b03610cdb600193896123a0565b5116610ce782876123a0565b5201610cbd565b508390839260405193838594850191818652518092526040850193925b828110610d1a57505050500390f35b83516001600160401b031685528695509381019392810192600101610d0b565b8554845260019586019589955093019201610c74565b50346101e65760203660031901126101e657610d6a611f63565b610d72612477565b6001600160a01b039081168015610881577f02dc5c233404867c793b749c6d644beb2277536d18a7e7974d3f238e4c6f16849160409160045491816bffffffffffffffffffffffff60a01b8416176004558351921682526020820152a180f35b50346101e65760203660031901126101e657610c26610df7610df2611efb565b61230f565b604051918291602083526020830190611f25565b50346101e657806003193601126101e6576004546040516001600160a01b039091168152602090f35b50346101e65760203660031901126101e657610bd56040610c26926001600160401b03610e5f611efb565b610e676122e5565b5016815260076020522060405190610e7e82612006565b600360028201549160ff6001600160801b0393848116865263ffffffff8160801c16602087015260a01c16151560408501520154908116606083015260801c60808201526124d5565b50346101e657806003193601126101e6576040518091600254908183526020809301809260025f527f405787fa12a823e0f2b7631cc41b3ba8828b3321ca811111fa75cd3aa3bb5ace905f5b818110610f705750505084610f2991038561203c565b60405193838594850191818652518092526040850193925b828110610f5057505050500390f35b83516001600160a01b031685528695509381019392810192600101610f41565b825484529286019260019283019201610f13565b5034610b415760206003198181360112610b4157600435926001600160401b0391828511610b415760a0908536030112610b4157606083604051610fc781611feb565b8281520152604051610fd881612006565b846004013594838611610b4157610ff7608096600436918401016121b4565b825260248082019261100884611f11565b92878201938452604481019061101d82611f79565b946040840195865260648201359361103e6084606083019487865201611f79565b9b018b90526001600160a01b039a7f00000000000000000000000000000000000000000000000000000000000000008c1696908c1687810361136857508b8b6001600160401b0360801b845160801b168860405180948193632cbc26bb60e01b835260048301527f0000000000000000000000000000000000000000000000000000000000000000165afa908115611260575f9161133b575b5061132957518b167f0000000000000000000000000000000000000000000000000000000000000000611302575b508881511661111f815f52600660205260405f2054151590565b156112eb578a8c6004541691876040518094819363a8d87a3b60e01b835260048301525afa8015611260578c915f916112b1575b5016330361129a578561117f93928a61117a9351169051905f5260078c5260405f20612a45565b612209565b604051632bdaf04d60e11b81529816600489015286888381865afa978815611260575f9861126b575b50823b15610b415760445f92836040519586948593632770a7eb60e21b85523060048601528401525af180156112605761124d575b503591821682036101e6575060409261123a6111fb610c269361230f565b938551928184015280835261120f83611feb565b85519461121b86611feb565b8552808501928352855195869582875251918601526060850190611f25565b9051838203601f19016040850152611f25565b611258919250611fd8565b5f905f6111dd565b6040513d5f823e3d90fd5b9097508681813d8311611293575b611283818361203c565b81010312610b415751965f6111a8565b503d611279565b60405163728fe07b60e01b81523360048201528590fd5b8092508c8092503d83116112e4575b6112ca818361203c565b81010312610b4157518b81168103610b41578b905f611153565b503d6112c0565b8590604051906354c8163f60e11b82526004820152fd5b805f5260038b5260405f2054611105578590604051906368692cbb60e11b82526004820152fd5b604051630a75a23b60e31b8152600490fd5b61135b91508c8d3d10611361575b611353818361203c565b81019061245f565b5f6110d7565b503d611349565b86906040519063961c9a4f60e01b82526004820152fd5b34610b41575f366003190112610b41575f546040516001600160a01b039091168152602090f35b34610b41576020366003190112610b415760206113de6001600160401b036113cc611efb565b165f52600660205260405f2054151590565b6040519015158152f35b34610b41576020366003190112610b4157611401611f63565b611409612477565b600880546001600160a01b0319166001600160a01b0392909216919091179055005b34610b41575f366003190112610b41576001546001600160a01b038082163303611497575f54916bffffffffffffffffffffffff60a01b9033828516175f55166001553391167f8be0079c531659141344cd1fd0a4f28419497f9722a3daafe3b4186f6b6457e05f80a3005b60405162461bcd60e51b815260206004820152601660248201527526bab9ba10313290383937b837b9b2b21037bbb732b960511b6044820152606490fd5b34610b41576040366003190112610b41576114ee611efb565b60248035916001600160401b03808411610b415736602385011215610b4157836004013591818311610b415736848487010111610b415761152d612477565b1691611544835f52600660205260405f2054151590565b1561175157825f5260209160078352600460405f200191604051925f908481549261156e846120c5565b92838352600194896001821691825f146117315750506001146116f3575b506115999250038561203c565b855f5260078552600460405f2001906115bc846115b684546120c5565b846122a0565b5f90601f851160011461166057509282819261161783807fdb4d6220746a38cbc5335f7e108f7de80f482f4d23350253dfd0917df75a14bf9b9c9761162e9b9a995f926116535750508160011b915f199060031b1c19161790565b90555b604051968795604087526040870190611f25565b938585038787015282855201858401375f828201850152601f01601f191601030190a2005b890101359050848e61063a565b90601f198516835f52875f20925f905b8282106116da575050928593927fdb4d6220746a38cbc5335f7e108f7de80f482f4d23350253dfd0917df75a14bf999a95928561162e9a999895106116bf575b5050600183811b01905561161a565b86018301355f19600386901b60f8161c191690558a806116b0565b8b84018701358555938401939289019290890190611670565b9150505f528486805f20845f915b85831061171857505061159993508201018a61158c565b80919294505483858b0101520191018790848893611701565b60ff19168582015261159995151560051b85010192508c915061158c9050565b604051631e670e4b60e01b815260048101849052fd5b34610b41575f366003190112610b41576008546040516001600160a01b039091168152602090f35b34610b41576040366003190112610b41576001600160401b03600435818111610b41576117c0903690600401611f8d565b602492919235918211610b41576117f36117e16117fb933690600401611f8d565b9490926117ec612477565b3691612234565b923691612234565b907f000000000000000000000000000000000000000000000000000000000000000015611902575f5b815181101561188a576001906001600160a01b0361184282856123a0565b511661184d8161282a565b611859575b5001611824565b60207f800671136ab6cfee9fbe5ed1fb7ca417811aca3cf864800d127b927adedf756691604051908152a184611852565b825f5b8151811015611900576001906001600160a01b036118ab82856123a0565b511680156118fa576118bc816129a4565b6118c9575b505b0161188d565b60207f2640d4d76caf8bf478aabfa982fa4e1c4eb71a37f93cd15e80dbc657911546d891604051908152a1836118c1565b506118c3565b005b6040516335f4a7b360e01b8152600490fd5b34610b4157600319602036820112610b4157600435906001600160401b038211610b415761010080918336030112610b41575f60405161195381611fbd565b526040519081018181106001600160401b0382111761086d5760405281600401356001600160401b038111610b415761199290600436918501016121b4565b81526119a060248301611f11565b60208201526119b160448301611f79565b6040820152606482013560608201526119cc60848301611f79565b6080820190815260a48301356001600160401b038111610b41576119f690600436918601016121b4565b60a08301526001600160401b0360c484013511610b4157611a2036600460c48601358601016121b4565b60c083015260e48301356001600160401b038111610b4157611a4890600436918601016121b4565b60e0830152516001600160a01b03908116907f0000000000000000000000000000000000000000000000000000000000000000168103611dbc5750602081810151604051632cbc26bb60e01b815260809190911b67ffffffffffffffff60801b16600482015290816024817f00000000000000000000000000000000000000000000000000000000000000006001600160a01b03165afa908115611260575f91611d9d575b50611329576001600160401b03602082015116611b15815f52600660205260405f2054151590565b15611d8557602060018060a01b0360045416916044604051809481936383826b2b60e01b835260048301523360248301525afa908115611260575f91611d66575b5015611d4e57611b726001600160401b036020830151166120fd565b8051908115918215611d33575b5050611d06578060606001600160401b036020611bda94015116910151905f52600760205260018060a01b037f00000000000000000000000000000000000000000000000000000000000000001690600260405f2001612a45565b6022198136030160c48201351215610b4157600460c482013582010135906001600160401b038211610b4157602460c4820135820101918036038313610b4157602060c483013583019182019190910312610b4157611c3b60448201612209565b917f00000000000000000000000000000000000000000000000000000000000000006001600160a01b03163b15610b4157604051630ab714fb60e11b81526001600160a01b039384166004820152606483810135602483015291356044820152925f918491829084907f0000000000000000000000000000000000000000000000000000000000000000165af191821561126057602092611cf7575b50604051611ce481611fbd565b6064820135905260646040519101358152f35b611d0090611fd8565b82611cd7565b60a001516040516324eb47e560e01b815260206004820152908190611d2f906024830190611f25565b0390fd5b60a08401518051602091820120920120141590508380611b7f565b60405163728fe07b60e01b8152336004820152602490fd5b611d7f915060203d60201161136157611353818361203c565b83611b56565b602490604051906354c8163f60e11b82526004820152fd5b611db6915060203d60201161136157611353818361203c565b83611aed565b6024906040519063961c9a4f60e01b82526004820152fd5b34610b41576020366003190112610b41576020611def611f63565b6040517f00000000000000000000000000000000000000000000000000000000000000006001600160a01b039081169216919091148152f35b34610b41575f366003190112610b41576040517f00000000000000000000000000000000000000000000000000000000000000006001600160a01b03168152602090f35b34610b41576020366003190112610b4157610c26610df7611e8b611efb565b6120fd565b34610b41576020366003190112610b41576004359063ffffffff60e01b8216809203610b415760209163aff2afbf60e01b8114908115611eea575b8115611ed9575b5015158152f35b6301ffc9a760e01b14905083611ed2565b630e64dd2960e01b81149150611ecb565b600435906001600160401b0382168203610b4157565b35906001600160401b0382168203610b4157565b91908251928382525f5b848110611f4f575050825f602080949584010152601f8019910116010190565b602081830181015184830182015201611f2f565b600435906001600160a01b0382168203610b4157565b35906001600160a01b0382168203610b4157565b9181601f84011215610b41578235916001600160401b038311610b41576020808501948460051b010111610b4157565b602081019081106001600160401b0382111761086d57604052565b6001600160401b03811161086d57604052565b604081019081106001600160401b0382111761086d57604052565b60a081019081106001600160401b0382111761086d57604052565b606081019081106001600160401b0382111761086d57604052565b90601f801991011681019081106001600160401b0382111761086d57604052565b35908115158203610b4157565b35906001600160801b0382168203610b4157565b9190826060910312610b415760405161209681612021565b60406120c08183956120a78161205d565b85526120b56020820161206a565b60208601520161206a565b910152565b90600182811c921680156120f3575b60208310146120df57565b634e487b7160e01b5f52602260045260245ffd5b91607f16916120d4565b6001600160401b03165f52602060078152600460405f20019060405180925f908054612128816120c5565b808552916001918083169081156121925750600114612154575b5050506121519250038261203c565b90565b5f90815285812095935091905b81831061217a57505061215193508201015f8080612142565b85548784018501529485019486945091830191612161565b9250505061215194925060ff191682840152151560051b8201015f8080612142565b81601f82011215610b41578035906001600160401b03821161086d57604051926121e8601f8401601f19166020018561203c565b82845260208383010111610b4157815f926020809301838601378301015290565b356001600160a01b0381168103610b415790565b6001600160401b03811161086d5760051b60200190565b929161223f8261221d565b9161224d604051938461203c565b829481845260208094019160051b8101928311610b4157905b8282106122735750505050565b83809161227f84611f79565b815201910190612266565b818110612295575050565b5f815560010161228a565b9190601f81116122af57505050565b6122d9925f5260205f20906020601f840160051c830193106122db575b601f0160051c019061228a565b565b90915081906122cc565b604051906122f282612006565b5f6080838281528260208201528260408201528260608201520152565b6001600160401b03165f52602060078152600560405f20019060405180925f90805461233a816120c5565b808552916001918083169081156121925750600114612362575050506121519250038261203c565b5f90815285812095935091905b81831061238857505061215193508201015f8080612142565b8554878401850152948501948694509183019161236f565b80518210156123b45760209160051b010190565b634e487b7160e01b5f52603260045260245ffd5b818102929181159184041417156123db57565b634e487b7160e01b5f52601160045260245ffd5b6123f981546120c5565b9081612403575050565b81601f5f9311600114612414575055565b908083918252612433601f60208420940160051c84016001850161228a565b5555565b604090805115158352816020820151916001600160801b038093166020860152015116910152565b90816020910312610b4157518015158103610b415790565b5f546001600160a01b0316330361248a57565b60405162461bcd60e51b815260206004820152601660248201527527b7363c9031b0b63630b1363290313c9037bbb732b960511b6044820152606490fd5b919082039182116123db57565b6124dd6122e5565b506001600160801b0380606083015116908083511690602084019261252463ffffffff9361251e61251186885116426124c8565b8560808a015116906123c8565b90612658565b8082101561253857505b1683524216905290565b905061252e565b805115612598576001600160801b03806040830151169060208301511681109081159161258f575b5061256f5750565b604051632008344960e21b815260649161258d906004830190612437565bfd5b9050155f612567565b6001600160801b038060408301511615908115916125d7575b506125b95750565b6040516335a2be7360e21b815260649161258d906004830190612437565b905060208201511615155f6125b1565b805115612636576001600160801b03806040830151169060208301511681109081159161262d575b5061256f575061261b57565b60405163433fc33d60e01b8152600490fd5b9050155f61260f565b90506001600160801b038060408301511615908115916125d757506125b95750565b919082018092116123db57565b7f9ea3374b67bf275e6bb9c8ae68f9cae023e1c528b4b27e092f0bb209d3531c1991612736606092805463ffffffff6126a3818360801c16426124c8565b918261274b575b5050506001600160801b0380916001826020870151169180548481168085105f146127465750835b885160ff60a01b19919097161674ff00000000ffffffffffffffffffffffffffffffff19919091161794151560a01b60ff60a01b1694909417845560408601516001600160801b0319931660801b929092166001600160801b039190911617910155565b6127436040518092612437565ba1565b6126d2565b6127b19260018501546127786127706001600160801b03938484169360801c906123c8565b838516612658565b808210156127b957505b63ffffffff60801b199116166001600160a01b031990911617429190911660801b63ffffffff60801b16178255565b5f80806126aa565b9050612782565b6002548110156123b45760025f527f405787fa12a823e0f2b7631cc41b3ba8828b3321ca811111fa75cd3aa3bb5ace01905f90565b6005548110156123b45760055f527f036b6384b5eca791c62761152d0c79bb0604c104a5fb6f4eb0703f3154bb3db001905f90565b5f8181526003602052604090205480156128f9575f19908082018181116123db57600254908382019182116123db578181036128af575b505050600254801561289b57810190612879826127c0565b909182549160031b1b191690556002555f5260036020525f6040812055600190565b634e487b7160e01b5f52603160045260245ffd5b6128e36128be6128cd936127c0565b90549060031b1c9283926127c0565b819391549060031b91821b915f19901b19161790565b90555f52600360205260405f20555f8080612861565b50505f90565b5f8181526006602052604090205480156128f9575f19908082018181116123db57600554908382019182116123db57818103612970575b505050600554801561289b5781019061294e826127f5565b909182549160031b1b191690556005555f5260066020525f6040812055600190565b61298e61297f6128cd936127f5565b90549060031b1c9283926127f5565b90555f52600660205260405f20555f8080612936565b805f52600360205260405f2054155f146129f257600254600160401b81101561086d576129db6128cd8260018594016002556127c0565b9055600254905f52600360205260405f2055600190565b505f90565b805f52600660205260405f2054155f146129f257600554600160401b81101561086d57612a2e6128cd8260018594016005556127f5565b9055600554905f52600660205260405f2055600190565b9091815460ff8160a01c16158015612c62575b612c5c576001600160801b039182821691600185019081549085821691612a8963ffffffff809360801c16426124c8565b9081612bec575b505050868110612b8a5750858310612aed575050918391612ad47f1871cdf8010e63f2eb8384381a68dfa7416dc571a5517e66e88b2d2d0c0a690a956020956124c8565b166001600160801b0319825416179055604051908152a1565b5460801c612afb83876124c8565b5f1982018281116123db57612b0f91612658565b8115612b765704906001600160a01b03811615612b5857604051636864691d60e11b8152600481019290925260248201929092526001600160a01b039091166044820152606490fd5b50604491604051916302a4f38160e31b835260048301526024820152fd5b634e487b7160e01b5f52601260045260245ffd5b8690836001600160a01b03811615612bce57604051630d3b2b9560e11b8152600481019290925260248201929092526001600160a01b039091166044820152606490fd5b506044916040519163f94ebcd160e01b835260048301526024820152fd5b838792939711612c4a57612c079261251e9160801c906123c8565b80821015612c415750612c39815b875463ffffffff60801b19164290961660801b63ffffffff60801b16959095178755565b5f8080612a90565b612c3990612c15565b604051634b92ca1560e11b8152600490fd5b50505050565b508315612a5856fea2646970667358221220f0b13d0f179d6551bd2b4508240abd8d4e3e40f2e21d5bcaa54d48339512d7da64736f6c63430008180033","linkReferences":{}},"methodIdentifiers":{"acceptOwnership()":"79ba5097","applyAllowListUpdates(address[],address[])":"54c8a4f3","applyChainUpdates((uint64,bool,bytes,bytes,(bool,uint128,uint128),(bool,uint128,uint128))[])":"db6327dc","getAllowList()":"a7cd63b7","getAllowListEnabled()":"e0351e13","getCurrentInboundRateLimiterState(uint64)":"af58d59f","getCurrentOutboundRateLimiterState(uint64)":"c75eea9c","getRateLimitAdmin()":"6d3d1a58","getRemotePool(uint64)":"0a2fd493","getRemoteToken(uint64)":"b7946580","getRmnProxy()":"dc0bd971","getRouter()":"b0f479a1","getSupportedChains()":"c4bffe2b","getToken()":"21df0da7","isSupportedChain(uint64)":"8926f54f","isSupportedToken(address)":"240028e8","lockOrBurn((bytes,uint64,address,uint256,address))":"9a4575b9","owner()":"8da5cb5b","releaseOrMint((bytes,uint64,address,uint256,address,bytes,bytes,bytes))":"39077537","setChainRateLimiterConfig(uint64,(bool,uint128,uint128),(bool,uint128,uint128))":"cf7401f3","setRateLimitAdmin(address)":"7d54534e","setRemotePool(uint64,bytes)":"78a010b2","setRouter(address)":"c0d78655","supportsInterface(bytes4)":"01ffc9a7","transferOwnership(address)":"f2fde38b"},"id":58}