{"abi":[{"type":"constructor","inputs":[],"stateMutability":"nonpayable"},{"type":"function","name":"DEFAULT_ADMIN_ROLE","inputs":[],"outputs":[{"name":"","type":"bytes32","internalType":"bytes32"}],"stateMutability":"view"},{"type":"function","name":"allowance","inputs":[{"name":"owner","type":"address","internalType":"address"},{"name":"spender","type":"address","internalType":"address"}],"outputs":[{"name":"","type":"uint256","internalType":"uint256"}],"stateMutability":"view"},{"type":"function","name":"approve","inputs":[{"name":"spender","type":"address","internalType":"address"},{"name":"value","type":"uint256","internalType":"uint256"}],"outputs":[{"name":"","type":"bool","internalType":"bool"}],"stateMutability":"nonpayable"},{"type":"function","name":"balanceOf","inputs":[{"name":"_user","type":"address","internalType":"address"}],"outputs":[{"name":"","type":"uint256","internalType":"uint256"}],"stateMutability":"view"},{"type":"function","name":"burn","inputs":[{"name":"_from","type":"address","internalType":"address"},{"name":"_amount","type":"uint256","internalType":"uint256"}],"outputs":[],"stateMutability":"nonpayable"},{"type":"function","name":"decimals","inputs":[],"outputs":[{"name":"","type":"uint8","internalType":"uint8"}],"stateMutability":"view"},{"type":"function","name":"getInterestRate","inputs":[],"outputs":[{"name":"","type":"uint256","internalType":"uint256"}],"stateMutability":"view"},{"type":"function","name":"getRoleAdmin","inputs":[{"name":"role","type":"bytes32","internalType":"bytes32"}],"outputs":[{"name":"","type":"bytes32","internalType":"bytes32"}],"stateMutability":"view"},{"type":"function","name":"getUserInterestRate","inputs":[{"name":"_user","type":"address","internalType":"address"}],"outputs":[{"name":"","type":"uint256","internalType":"uint256"}],"stateMutability":"view"},{"type":"function","name":"grantMintAndBurnRole","inputs":[{"name":"_account","type":"address","internalType":"address"}],"outputs":[],"stateMutability":"nonpayable"},{"type":"function","name":"grantRole","inputs":[{"name":"role","type":"bytes32","internalType":"bytes32"},{"name":"account","type":"address","internalType":"address"}],"outputs":[],"stateMutability":"nonpayable"},{"type":"function","name":"hasRole","inputs":[{"name":"role","type":"bytes32","internalType":"bytes32"},{"name":"account","type":"address","internalType":"address"}],"outputs":[{"name":"","type":"bool","internalType":"bool"}],"stateMutability":"view"},{"type":"function","name":"mint","inputs":[{"name":"_to","type":"address","internalType":"address"},{"name":"_amount","type":"uint256","internalType":"uint256"},{"name":"_userInterestRate","type":"uint256","internalType":"uint256"}],"outputs":[],"stateMutability":"nonpayable"},{"type":"function","name":"name","inputs":[],"outputs":[{"name":"","type":"string","internalType":"string"}],"stateMutability":"view"},{"type":"function","name":"owner","inputs":[],"outputs":[{"name":"","type":"address","internalType":"address"}],"stateMutability":"view"},{"type":"function","name":"principalBalanceOf","inputs":[{"name":"_user","type":"address","internalType":"address"}],"outputs":[{"name":"","type":"uint256","internalType":"uint256"}],"stateMutability":"view"},{"type":"function","name":"renounceOwnership","inputs":[],"outputs":[],"stateMutability":"nonpayable"},{"type":"function","name":"renounceRole","inputs":[{"name":"role","type":"bytes32","internalType":"bytes32"},{"name":"callerConfirmation","type":"address","internalType":"address"}],"outputs":[],"stateMutability":"nonpayable"},{"type":"function","name":"revokeRole","inputs":[{"name":"role","type":"bytes32","internalType":"bytes32"},{"name":"account","type":"address","internalType":"address"}],"outputs":[],"stateMutability":"nonpayable"},{"type":"function","name":"setInterestRate","inputs":[{"name":"_newInterestRate","type":"uint256","internalType":"uint256"}],"outputs":[],"stateMutability":"nonpayable"},{"type":"function","name":"supportsInterface","inputs":[{"name":"interfaceId","type":"bytes4","internalType":"bytes4"}],"outputs":[{"name":"","type":"bool","internalType":"bool"}],"stateMutability":"view"},{"type":"function","name":"symbol","inputs":[],"outputs":[{"name":"","type":"string","internalType":"string"}],"stateMutability":"view"},{"type":"function","name":"totalSupply","inputs":[],"outputs":[{"name":"","type":"uint256","internalType":"uint256"}],"stateMutability":"view"},{"type":"function","name":"transfer","inputs":[{"name":"_recipient","type":"address","internalType":"address"},{"name":"_amount","type":"uint256","internalType":"uint256"}],"outputs":[{"name":"","type":"bool","internalType":"bool"}],"stateMutability":"nonpayable"},{"type":"function","name":"transferFrom","inputs":[{"name":"_sender","type":"address","internalType":"address"},{"name":"_recipient","type":"address","internalType":"address"},{"name":"amount","type":"uint256","internalType":"uint256"}],"outputs":[{"name":"","type":"bool","internalType":"bool"}],"stateMutability":"nonpayable"},{"type":"function","name":"transferOwnership","inputs":[{"name":"newOwner","type":"address","internalType":"address"}],"outputs":[],"stateMutability":"nonpayable"},{"type":"event","name":"Approval","inputs":[{"name":"owner","type":"address","indexed":true,"internalType":"address"},{"name":"spender","type":"address","indexed":true,"internalType":"address"},{"name":"value","type":"uint256","indexed":false,"internalType":"uint256"}],"anonymous":false},{"type":"event","name":"InterestRateChanged","inputs":[{"name":"newInterestRate","type":"uint256","indexed":false,"internalType":"uint256"}],"anonymous":false},{"type":"event","name":"OwnershipTransferred","inputs":[{"name":"previousOwner","type":"address","indexed":true,"internalType":"address"},{"name":"newOwner","type":"address","indexed":true,"internalType":"address"}],"anonymous":false},{"type":"event","name":"RoleAdminChanged","inputs":[{"name":"role","type":"bytes32","indexed":true,"internalType":"bytes32"},{"name":"previousAdminRole","type":"bytes32","indexed":true,"internalType":"bytes32"},{"name":"newAdminRole","type":"bytes32","indexed":true,"internalType":"bytes32"}],"anonymous":false},{"type":"event","name":"RoleGranted","inputs":[{"name":"role","type":"bytes32","indexed":true,"internalType":"bytes32"},{"name":"account","type":"address","indexed":true,"internalType":"address"},{"name":"sender","type":"address","indexed":true,"internalType":"address"}],"anonymous":false},{"type":"event","name":"RoleRevoked","inputs":[{"name":"role","type":"bytes32","indexed":true,"internalType":"bytes32"},{"name":"account","type":"address","indexed":true,"internalType":"address"},{"name":"sender","type":"address","indexed":true,"internalType":"address"}],"anonymous":false},{"type":"event","name":"Transfer","inputs":[{"name":"from","type":"address","indexed":true,"internalType":"address"},{"name":"to","type":"address","indexed":true,"internalType":"address"},{"name":"value","type":"uint256","indexed":false,"internalType":"uint256"}],"anonymous":false},{"type":"error","name":"AccessControlBadConfirmation","inputs":[]},{"type":"error","name":"AccessControlUnauthorizedAccount","inputs":[{"name":"account","type":"address","internalType":"address"},{"name":"neededRole","type":"bytes32","internalType":"bytes32"}]},{"type":"error","name":"ERC20InsufficientAllowance","inputs":[{"name":"spender","type":"address","internalType":"address"},{"name":"allowance","type":"uint256","internalType":"uint256"},{"name":"needed","type":"uint256","internalType":"uint256"}]},{"type":"error","name":"ERC20InsufficientBalance","inputs":[{"name":"sender","type":"address","internalType":"address"},{"name":"balance","type":"uint256","internalType":"uint256"},{"name":"needed","type":"uint256","internalType":"uint256"}]},{"type":"error","name":"ERC20InvalidApprover","inputs":[{"name":"approver","type":"address","internalType":"address"}]},{"type":"error","name":"ERC20InvalidReceiver","inputs":[{"name":"receiver","type":"address","internalType":"address"}]},{"type":"error","name":"ERC20InvalidSender","inputs":[{"name":"sender","type":"address","internalType":"address"}]},{"type":"error","name":"ERC20InvalidSpender","inputs":[{"name":"spender","type":"address","internalType":"address"}]},{"type":"error","name":"OwnableInvalidOwner","inputs":[{"name":"owner","type":"address","internalType":"address"}]},{"type":"error","name":"OwnableUnauthorizedAccount","inputs":[{"name":"account","type":"address","internalType":"address"}]},{"type":"error","name":"RebaseToken__InterestRateCanOnlyDecrease","inputs":[{"name":"newInterestRate","type":"uint256","internalType":"uint256"},{"name":"oldInterestRate","type":"uint256","internalType":"uint256"}]}],"bytecode":{"object":"0x60803462000363576040906001600160401b0390808301828111828210176200026e578352600c81526020916b2932b130b9b2902a37b5b2b760a11b838301528351848101818110838211176200026e5785526003908181526214909560ea1b858201528351908382116200026e578254916001958684811c9416801562000358575b8885101462000344578190601f94858111620002f1575b5088908583116001146200028e575f9262000282575b50505f1982861b1c191690861b1783555b80519384116200026e5760049586548681811c9116801562000263575b82821014620002505783811162000208575b50809285116001146200019e57509383949184925f9562000192575b50501b925f19911b1c19161781555b33156200017d575060058054336001600160a01b0319821681179092559151916001600160a01b03167f8be0079c531659141344cd1fd0a4f28419497f9722a3daafe3b4186f6b6457e05f80a3640ba43b740060075561109e9081620003688239f35b5f6024925191631e4fbdf760e01b8352820152fd5b015193505f806200010b565b92919084601f198116885f52855f20955f905b89838310620001ed5750505010620001d3575b50505050811b0181556200011a565b01519060f8845f19921b161c191690555f808080620001c4565b858701518955909701969485019488935090810190620001b1565b875f52815f208480880160051c82019284891062000246575b0160051c019087905b8281106200023a575050620000ef565b5f81550187906200022a565b9250819262000221565b602288634e487b7160e01b5f525260245ffd5b90607f1690620000dd565b634e487b7160e01b5f52604160045260245ffd5b015190505f80620000af565b90889350601f19831691875f528a5f20925f5b8c828210620002da5750508411620002c2575b505050811b018355620000c0565b01515f1983881b60f8161c191690555f8080620002b4565b8385015186558c97909501949384019301620002a1565b909150855f52885f208580850160051c8201928b86106200033a575b918a91869594930160051c01915b8281106200032b57505062000099565b5f81558594508a91016200031b565b925081926200030d565b634e487b7160e01b5f52602260045260245ffd5b93607f169362000082565b5f80fdfe608060409080825260049081361015610016575f80fd5b5f3560e01c90816301ffc9a714610b2e5750806306fdde0314610a52578063095ea7b3146109a9578063156e29f61461095757806318160ddd1461093957806323b872dd146107e6578063248a9ca3146107bb5780632f2ff15d14610792578063313ce5671461077757806336568abe146107325780635257b5661461071457806357b5e09a146106dd5780635f84f3021461066b57806370a082311461063f578063715018a6146105e45780637cfb3d71146105bb5780638da5cb5b1461059357806391d148541461054e57806395d89b411461042e5780639dc29fac14610333578063a217fddf14610319578063a9059cbb1461028b578063c634dfaa14610255578063d547741f14610218578063dd62ed3e146101cf5763f2fde38b1461013e575f80fd5b346101cb5760203660031901126101cb57610157610bc7565b90610160610f7a565b6001600160a01b039182169283156101b5575050600554826bffffffffffffffffffffffff60a01b821617600555167f8be0079c531659141344cd1fd0a4f28419497f9722a3daafe3b4186f6b6457e05f80a3005b905f6024925191631e4fbdf760e01b8352820152fd5b5f80fd5b82346101cb57806003193601126101cb576020906101eb610bc7565b6101f3610bdd565b9060018060a01b038091165f5260018452825f2091165f528252805f20549051908152f35b5090346101cb57806003193601126101cb57610253913561024e600161023c610bdd565b93835f5260066020525f200154610cf1565b610f06565b005b82346101cb5760203660031901126101cb576020906001600160a01b0361027a610bc7565b165f525f8252805f20549051908152f35b82346101cb57806003193601126101cb576020906102de6102aa610bc7565b602435906102b733610d20565b6102c081610d20565b5f198214610308575b6102d281610c1a565b156102e5575b33610fa6565b5160018152f35b335f90815260088652848120546001600160a01b038316825290859020556102d8565b905061031333610c1a565b906102c9565b82346101cb575f3660031901126101cb57602090515f8152f35b5090346101cb57806003193601126101cb5761034d610bc7565b906024359261035a610c78565b5f19841461041d575b61036c83610d20565b6001600160a01b03831692831561040757835f525f602052825f2054918583106103d3575f857fddf252ad1be2c89b69c2b068fc378daa952ba7f163c4a11628f55a4df523b3ef6020898881898688528785520381872055816002540360025551908152a3005b835163391434e360e21b81526001600160a01b03909216908201908152602081018390526040810186905281906060010390fd5b505f6024925191634b637e8f60e11b8352820152fd5b925061042882610c1a565b92610363565b5090346101cb575f3660031901126101cb578051905f835460018160011c9060018316928315610544575b60209384841081146105315783885290811561051557506001146104c1575b505050829003601f01601f191682019267ffffffffffffffff8411838510176104ae57508291826104aa925282610b80565b0390f35b604190634e487b7160e01b5f525260245ffd5b5f878152929350837f8a35acfbc15ff81a39ae7d344fd709f28e8600b4aa8c65c6b64bfe7fe36bd19b5b83851061050157505050508301015f8080610478565b8054888601830152930192849082016104eb565b60ff1916878501525050151560051b84010190505f8080610478565b602289634e487b7160e01b5f525260245ffd5b91607f1691610459565b5090346101cb57806003193601126101cb5760209161056b610bdd565b90355f5260068352815f209060018060a01b03165f52825260ff815f20541690519015158152f35b82346101cb575f3660031901126101cb5760055490516001600160a01b039091168152602090f35b346101cb5760203660031901126101cb576102536105d7610bc7565b6105df610f7a565b610ddc565b346101cb575f3660031901126101cb576105fc610f7a565b600580546001600160a01b031981169091555f906001600160a01b03167f8be0079c531659141344cd1fd0a4f28419497f9722a3daafe3b4186f6b6457e08280a3005b82346101cb5760203660031901126101cb5760209061066461065f610bc7565b610c1a565b9051908152f35b5090346101cb5760203660031901126101cb57813591610689610f7a565b6007548084116106c3577f9b0e27966bda85ea10cceebb1a842d9ed3d720f4a9b7b0199bde09496cab6826602085858160075551908152a1005b6044939192519262b5b0cb60e51b84528301526024820152fd5b82346101cb5760203660031901126101cb576020906001600160a01b03610702610bc7565b165f5260088252805f20549051908152f35b82346101cb575f3660031901126101cb576020906007549051908152f35b5090346101cb57806003193601126101cb5761074c610bdd565b90336001600160a01b0383160361076857506102539135610f06565b5163334bd91960e11b81529050fd5b82346101cb575f3660031901126101cb576020905160128152f35b5090346101cb57806003193601126101cb5761025391356107b6600161023c610bdd565b610e8e565b5090346101cb5760203660031901126101cb57602091355f52600682526001815f2001549051908152f35b50346101cb5760603660031901126101cb57610800610bc7565b610808610bdd565b906044359261081682610d20565b61081f83610d20565b5f1990848214610928575b61083384610c1a565b15610902575b60018060a01b03831690815f526001602052865f20335f52602052865f205492830361086e575b6020876102de888888610fa6565b8583106108d65781156108c05733156108aa57505f908152600160209081528682203383528152908690209185900390915582906102de610860565b6024905f885191634a1406b160e11b8352820152fd5b6024905f88519163e602df0560e01b8352820152fd5b8651637dc7a0d960e11b8152339181019182526020820193909352604081018690528291506060010390fd5b6001600160a01b038381165f908152600860205287812054918616815287902055610839565b935061093382610c1a565b9361082a565b82346101cb575f3660031901126101cb576020906002549051908152f35b82346101cb5760603660031901126101cb5761025390610975610bc7565b9061097e610c78565b61098782610d20565b6001600160a01b0382165f908152600860205220604435905560243590610d64565b5090346101cb57806003193601126101cb576109c3610bc7565b602435903315610a3c576001600160a01b0316908115610a265760209350335f5260018452825f20825f52845280835f205582519081527f8c5be1e5ebec7d5bd14f71427d1e84f3dd0314c0f7b2291e5b200ac8c7c3b925843392a35160018152f35b8251634a1406b160e11b81525f81860152602490fd5b825163e602df0560e01b81525f81860152602490fd5b5090346101cb575f3660031901126101cb578051905f60035460018160011c9060018316928315610b24575b6020938484108114610531578388529081156105155750600114610ace57505050829003601f01601f191682019267ffffffffffffffff8411838510176104ae57508291826104aa925282610b80565b60035f908152929350837fc2575a0e9e593c00f959f8c92f12db2869c3395a3b0502d05e2516446f71f85b5b838510610b1057505050508301015f8080610478565b805488860183015293019284908201610afa565b91607f1691610a7e565b82346101cb5760203660031901126101cb57359063ffffffff60e01b82168092036101cb57602091637965db0b60e01b8114908115610b6f575b5015158152f35b6301ffc9a760e01b14905083610b68565b602080825282518183018190529093925f5b828110610bb357505060409293505f838284010152601f8019910116010190565b818101860151848201604001528501610b92565b600435906001600160a01b03821682036101cb57565b602435906001600160a01b03821682036101cb57565b81810292918115918404141715610c0657565b634e487b7160e01b5f52601160045260245ffd5b60018060a01b0316805f525f602052610c5760405f2054916009602052610c4560405f205442610d13565b905f52600860205260405f2054610bf3565b90678ac7230489e80000918201808311610c0657610c7491610bf3565b0490565b335f9081527f814a2fce4941e5712c90336ee524034b4b021616ba1e7c1b1169a576a71951e560205260409020547f7429555b03aa5cf08cc5fc0890c97db295c9cec5e6bb1544bcd7fd1430dae3e29060ff1615610cd35750565b6044906040519063e2517d3f60e01b82523360048301526024820152fd5b805f52600660205260405f20335f5260205260ff60405f20541615610cd35750565b91908203918211610c0657565b6001600160a01b0381165f81815260208190526040902054610d629290610d4f90610d4a83610c1a565b610d13565b915f5260096020524260405f2055610d64565b565b6001600160a01b0316908115610dc45760025490808201809211610c065760207fddf252ad1be2c89b69c2b068fc378daa952ba7f163c4a11628f55a4df523b3ef915f9360025584845283825260408420818154019055604051908152a3565b60405163ec442f0560e01b81525f6004820152602490fd5b6001600160a01b03165f8181527f814a2fce4941e5712c90336ee524034b4b021616ba1e7c1b1169a576a71951e560205260409020547f7429555b03aa5cf08cc5fc0890c97db295c9cec5e6bb1544bcd7fd1430dae3e2919060ff16610e8857815f52600660205260405f20815f5260205260405f20600160ff1982541617905533917f2f8788117e7eff1d82e926ec794901d17c78024a50270940304540a733656f0d5f80a4600190565b50505f90565b90815f52600660205260405f209060018060a01b031690815f5260205260ff60405f205416155f14610e8857815f52600660205260405f20815f5260205260405f20600160ff1982541617905533917f2f8788117e7eff1d82e926ec794901d17c78024a50270940304540a733656f0d5f80a4600190565b90815f52600660205260405f209060018060a01b031690815f5260205260ff60405f2054165f14610e8857815f52600660205260405f20815f5260205260405f2060ff19815416905533917ff6391f5c32d9c69d2a47ea670b442974b53935d1edc7fd64eb21e047a839171b5f80a4600190565b6005546001600160a01b03163303610f8e57565b60405163118cdaa760e01b8152336004820152602490fd5b916001600160a01b038084169283156110505716928315610dc457825f525f60205260405f20549082821061101e5750817fddf252ad1be2c89b69c2b068fc378daa952ba7f163c4a11628f55a4df523b3ef92602092855f525f84520360405f2055845f5260405f20818154019055604051908152a3565b60405163391434e360e21b81526001600160a01b03919091166004820152602481019190915260448101829052606490fd5b604051634b637e8f60e11b81525f6004820152602490fdfea264697066735822122051a5d7766694a1bcc45073f873a4e1b71caa87bef1c14491f421f7002b68791964736f6c63430008180033","linkReferences":{}},"methodIdentifiers":{"DEFAULT_ADMIN_ROLE()":"a217fddf","allowance(address,address)":"dd62ed3e","approve(address,uint256)":"095ea7b3","balanceOf(address)":"70a08231","burn(address,uint256)":"9dc29fac","decimals()":"313ce567","getInterestRate()":"5257b566","getRoleAdmin(bytes32)":"248a9ca3","getUserInterestRate(address)":"57b5e09a","grantMintAndBurnRole(address)":"7cfb3d71","grantRole(bytes32,address)":"2f2ff15d","hasRole(bytes32,address)":"91d14854","mint(address,uint256,uint256)":"156e29f6","name()":"06fdde03","owner()":"8da5cb5b","principalBalanceOf(address)":"c634dfaa","renounceOwnership()":"715018a6","renounceRole(bytes32,address)":"36568abe","revokeRole(bytes32,address)":"d547741f","setInterestRate(uint256)":"5f84f302","supportsInterface(bytes4)":"01ffc9a7","symbol()":"95d89b41","totalSupply()":"18160ddd","transfer(address,uint256)":"a9059cbb","transferFrom(address,address,uint256)":"23b872dd","transferOwnership(address)":"f2fde38b"},"id":59}